{
  "contractName": "Bridge",
  "abi": [
    {
      "inputs": [
        {
          "internalType": "uint8",
          "name": "chainID",
          "type": "uint8"
        },
        {
          "internalType": "address[]",
          "name": "initialRelayers",
          "type": "address[]"
        },
        {
          "internalType": "uint256",
          "name": "initialRelayerThreshold",
          "type": "uint256"
        },
        {
          "internalType": "uint256",
          "name": "fee",
          "type": "uint256"
        },
        {
          "internalType": "uint256",
          "name": "expiry",
          "type": "uint256"
        }
      ],
      "stateMutability": "nonpayable",
      "type": "constructor"
    },
    {
      "anonymous": false,
      "inputs": [
        {
          "indexed": true,
          "internalType": "uint8",
          "name": "destinationChainID",
          "type": "uint8"
        },
        {
          "indexed": true,
          "internalType": "bytes32",
          "name": "resourceID",
          "type": "bytes32"
        },
        {
          "indexed": true,
          "internalType": "uint64",
          "name": "depositNonce",
          "type": "uint64"
        }
      ],
      "name": "Deposit",
      "type": "event"
    },
    {
      "anonymous": false,
      "inputs": [
        {
          "indexed": false,
          "internalType": "address",
          "name": "account",
          "type": "address"
        }
      ],
      "name": "Paused",
      "type": "event"
    },
    {
      "anonymous": false,
      "inputs": [
        {
          "indexed": true,
          "internalType": "uint8",
          "name": "originChainID",
          "type": "uint8"
        },
        {
          "indexed": true,
          "internalType": "uint64",
          "name": "depositNonce",
          "type": "uint64"
        },
        {
          "indexed": true,
          "internalType": "enum Bridge.ProposalStatus",
          "name": "status",
          "type": "uint8"
        },
        {
          "indexed": false,
          "internalType": "bytes32",
          "name": "resourceID",
          "type": "bytes32"
        },
        {
          "indexed": false,
          "internalType": "bytes32",
          "name": "dataHash",
          "type": "bytes32"
        }
      ],
      "name": "ProposalEvent",
      "type": "event"
    },
    {
      "anonymous": false,
      "inputs": [
        {
          "indexed": true,
          "internalType": "uint8",
          "name": "originChainID",
          "type": "uint8"
        },
        {
          "indexed": true,
          "internalType": "uint64",
          "name": "depositNonce",
          "type": "uint64"
        },
        {
          "indexed": true,
          "internalType": "enum Bridge.ProposalStatus",
          "name": "status",
          "type": "uint8"
        },
        {
          "indexed": false,
          "internalType": "bytes32",
          "name": "resourceID",
          "type": "bytes32"
        }
      ],
      "name": "ProposalVote",
      "type": "event"
    },
    {
      "anonymous": false,
      "inputs": [
        {
          "indexed": true,
          "internalType": "address",
          "name": "relayer",
          "type": "address"
        }
      ],
      "name": "RelayerAdded",
      "type": "event"
    },
    {
      "anonymous": false,
      "inputs": [
        {
          "indexed": true,
          "internalType": "address",
          "name": "relayer",
          "type": "address"
        }
      ],
      "name": "RelayerRemoved",
      "type": "event"
    },
    {
      "anonymous": false,
      "inputs": [
        {
          "indexed": true,
          "internalType": "uint256",
          "name": "newThreshold",
          "type": "uint256"
        }
      ],
      "name": "RelayerThresholdChanged",
      "type": "event"
    },
    {
      "anonymous": false,
      "inputs": [
        {
          "indexed": true,
          "internalType": "bytes32",
          "name": "role",
          "type": "bytes32"
        },
        {
          "indexed": true,
          "internalType": "bytes32",
          "name": "previousAdminRole",
          "type": "bytes32"
        },
        {
          "indexed": true,
          "internalType": "bytes32",
          "name": "newAdminRole",
          "type": "bytes32"
        }
      ],
      "name": "RoleAdminChanged",
      "type": "event"
    },
    {
      "anonymous": false,
      "inputs": [
        {
          "indexed": true,
          "internalType": "bytes32",
          "name": "role",
          "type": "bytes32"
        },
        {
          "indexed": true,
          "internalType": "address",
          "name": "account",
          "type": "address"
        },
        {
          "indexed": true,
          "internalType": "address",
          "name": "sender",
          "type": "address"
        }
      ],
      "name": "RoleGranted",
      "type": "event"
    },
    {
      "anonymous": false,
      "inputs": [
        {
          "indexed": true,
          "internalType": "bytes32",
          "name": "role",
          "type": "bytes32"
        },
        {
          "indexed": true,
          "internalType": "address",
          "name": "account",
          "type": "address"
        },
        {
          "indexed": true,
          "internalType": "address",
          "name": "sender",
          "type": "address"
        }
      ],
      "name": "RoleRevoked",
      "type": "event"
    },
    {
      "anonymous": false,
      "inputs": [
        {
          "indexed": false,
          "internalType": "address",
          "name": "account",
          "type": "address"
        }
      ],
      "name": "Unpaused",
      "type": "event"
    },
    {
      "inputs": [],
      "name": "DEFAULT_ADMIN_ROLE",
      "outputs": [
        {
          "internalType": "bytes32",
          "name": "",
          "type": "bytes32"
        }
      ],
      "stateMutability": "view",
      "type": "function"
    },
    {
      "inputs": [],
      "name": "RELAYER_ROLE",
      "outputs": [
        {
          "internalType": "bytes32",
          "name": "",
          "type": "bytes32"
        }
      ],
      "stateMutability": "view",
      "type": "function"
    },
    {
      "inputs": [],
      "name": "_chainID",
      "outputs": [
        {
          "internalType": "uint8",
          "name": "",
          "type": "uint8"
        }
      ],
      "stateMutability": "view",
      "type": "function"
    },
    {
      "inputs": [
        {
          "internalType": "uint8",
          "name": "",
          "type": "uint8"
        }
      ],
      "name": "_depositCounts",
      "outputs": [
        {
          "internalType": "uint64",
          "name": "",
          "type": "uint64"
        }
      ],
      "stateMutability": "view",
      "type": "function"
    },
    {
      "inputs": [
        {
          "internalType": "uint64",
          "name": "",
          "type": "uint64"
        },
        {
          "internalType": "uint8",
          "name": "",
          "type": "uint8"
        }
      ],
      "name": "_depositRecords",
      "outputs": [
        {
          "internalType": "bytes",
          "name": "",
          "type": "bytes"
        }
      ],
      "stateMutability": "view",
      "type": "function"
    },
    {
      "inputs": [],
      "name": "_expiry",
      "outputs": [
        {
          "internalType": "uint256",
          "name": "",
          "type": "uint256"
        }
      ],
      "stateMutability": "view",
      "type": "function"
    },
    {
      "inputs": [],
      "name": "_fee",
      "outputs": [
        {
          "internalType": "uint256",
          "name": "",
          "type": "uint256"
        }
      ],
      "stateMutability": "view",
      "type": "function"
    },
    {
      "inputs": [
        {
          "internalType": "uint72",
          "name": "",
          "type": "uint72"
        },
        {
          "internalType": "bytes32",
          "name": "",
          "type": "bytes32"
        },
        {
          "internalType": "address",
          "name": "",
          "type": "address"
        }
      ],
      "name": "_hasVotedOnProposal",
      "outputs": [
        {
          "internalType": "bool",
          "name": "",
          "type": "bool"
        }
      ],
      "stateMutability": "view",
      "type": "function"
    },
    {
      "inputs": [
        {
          "internalType": "uint72",
          "name": "",
          "type": "uint72"
        },
        {
          "internalType": "bytes32",
          "name": "",
          "type": "bytes32"
        }
      ],
      "name": "_proposals",
      "outputs": [
        {
          "internalType": "bytes32",
          "name": "_resourceID",
          "type": "bytes32"
        },
        {
          "internalType": "bytes32",
          "name": "_dataHash",
          "type": "bytes32"
        },
        {
          "internalType": "enum Bridge.ProposalStatus",
          "name": "_status",
          "type": "uint8"
        },
        {
          "internalType": "uint256",
          "name": "_proposedBlock",
          "type": "uint256"
        }
      ],
      "stateMutability": "view",
      "type": "function"
    },
    {
      "inputs": [],
      "name": "_relayerThreshold",
      "outputs": [
        {
          "internalType": "uint256",
          "name": "",
          "type": "uint256"
        }
      ],
      "stateMutability": "view",
      "type": "function"
    },
    {
      "inputs": [
        {
          "internalType": "bytes32",
          "name": "",
          "type": "bytes32"
        }
      ],
      "name": "_resourceIDToHandlerAddress",
      "outputs": [
        {
          "internalType": "address",
          "name": "",
          "type": "address"
        }
      ],
      "stateMutability": "view",
      "type": "function"
    },
    {
      "inputs": [],
      "name": "_totalProposals",
      "outputs": [
        {
          "internalType": "uint256",
          "name": "",
          "type": "uint256"
        }
      ],
      "stateMutability": "view",
      "type": "function"
    },
    {
      "inputs": [
        {
          "internalType": "bytes32",
          "name": "role",
          "type": "bytes32"
        }
      ],
      "name": "getRoleAdmin",
      "outputs": [
        {
          "internalType": "bytes32",
          "name": "",
          "type": "bytes32"
        }
      ],
      "stateMutability": "view",
      "type": "function"
    },
    {
      "inputs": [
        {
          "internalType": "bytes32",
          "name": "role",
          "type": "bytes32"
        },
        {
          "internalType": "uint256",
          "name": "index",
          "type": "uint256"
        }
      ],
      "name": "getRoleMember",
      "outputs": [
        {
          "internalType": "address",
          "name": "",
          "type": "address"
        }
      ],
      "stateMutability": "view",
      "type": "function"
    },
    {
      "inputs": [
        {
          "internalType": "bytes32",
          "name": "role",
          "type": "bytes32"
        }
      ],
      "name": "getRoleMemberCount",
      "outputs": [
        {
          "internalType": "uint256",
          "name": "",
          "type": "uint256"
        }
      ],
      "stateMutability": "view",
      "type": "function"
    },
    {
      "inputs": [
        {
          "internalType": "bytes32",
          "name": "role",
          "type": "bytes32"
        },
        {
          "internalType": "address",
          "name": "account",
          "type": "address"
        }
      ],
      "name": "grantRole",
      "outputs": [],
      "stateMutability": "nonpayable",
      "type": "function"
    },
    {
      "inputs": [
        {
          "internalType": "bytes32",
          "name": "role",
          "type": "bytes32"
        },
        {
          "internalType": "address",
          "name": "account",
          "type": "address"
        }
      ],
      "name": "hasRole",
      "outputs": [
        {
          "internalType": "bool",
          "name": "",
          "type": "bool"
        }
      ],
      "stateMutability": "view",
      "type": "function"
    },
    {
      "inputs": [],
      "name": "paused",
      "outputs": [
        {
          "internalType": "bool",
          "name": "",
          "type": "bool"
        }
      ],
      "stateMutability": "view",
      "type": "function"
    },
    {
      "inputs": [
        {
          "internalType": "bytes32",
          "name": "role",
          "type": "bytes32"
        },
        {
          "internalType": "address",
          "name": "account",
          "type": "address"
        }
      ],
      "name": "renounceRole",
      "outputs": [],
      "stateMutability": "nonpayable",
      "type": "function"
    },
    {
      "inputs": [
        {
          "internalType": "bytes32",
          "name": "role",
          "type": "bytes32"
        },
        {
          "internalType": "address",
          "name": "account",
          "type": "address"
        }
      ],
      "name": "revokeRole",
      "outputs": [],
      "stateMutability": "nonpayable",
      "type": "function"
    },
    {
      "inputs": [
        {
          "internalType": "address",
          "name": "relayer",
          "type": "address"
        }
      ],
      "name": "isRelayer",
      "outputs": [
        {
          "internalType": "bool",
          "name": "",
          "type": "bool"
        }
      ],
      "stateMutability": "view",
      "type": "function"
    },
    {
      "inputs": [
        {
          "internalType": "address",
          "name": "newAdmin",
          "type": "address"
        }
      ],
      "name": "renounceAdmin",
      "outputs": [],
      "stateMutability": "nonpayable",
      "type": "function"
    },
    {
      "inputs": [],
      "name": "adminPauseTransfers",
      "outputs": [],
      "stateMutability": "nonpayable",
      "type": "function"
    },
    {
      "inputs": [],
      "name": "adminUnpauseTransfers",
      "outputs": [],
      "stateMutability": "nonpayable",
      "type": "function"
    },
    {
      "inputs": [
        {
          "internalType": "uint256",
          "name": "newThreshold",
          "type": "uint256"
        }
      ],
      "name": "adminChangeRelayerThreshold",
      "outputs": [],
      "stateMutability": "nonpayable",
      "type": "function"
    },
    {
      "inputs": [
        {
          "internalType": "address",
          "name": "relayerAddress",
          "type": "address"
        }
      ],
      "name": "adminAddRelayer",
      "outputs": [],
      "stateMutability": "nonpayable",
      "type": "function"
    },
    {
      "inputs": [
        {
          "internalType": "address",
          "name": "relayerAddress",
          "type": "address"
        }
      ],
      "name": "adminRemoveRelayer",
      "outputs": [],
      "stateMutability": "nonpayable",
      "type": "function"
    },
    {
      "inputs": [
        {
          "internalType": "address",
          "name": "handlerAddress",
          "type": "address"
        },
        {
          "internalType": "bytes32",
          "name": "resourceID",
          "type": "bytes32"
        },
        {
          "internalType": "address",
          "name": "tokenAddress",
          "type": "address"
        }
      ],
      "name": "adminSetResource",
      "outputs": [],
      "stateMutability": "nonpayable",
      "type": "function"
    },
    {
      "inputs": [
        {
          "internalType": "address",
          "name": "handlerAddress",
          "type": "address"
        },
        {
          "internalType": "bytes32",
          "name": "resourceID",
          "type": "bytes32"
        },
        {
          "internalType": "address",
          "name": "contractAddress",
          "type": "address"
        },
        {
          "internalType": "bytes4",
          "name": "depositFunctionSig",
          "type": "bytes4"
        },
        {
          "internalType": "bytes4",
          "name": "executeFunctionSig",
          "type": "bytes4"
        }
      ],
      "name": "adminSetGenericResource",
      "outputs": [],
      "stateMutability": "nonpayable",
      "type": "function"
    },
    {
      "inputs": [
        {
          "internalType": "address",
          "name": "handlerAddress",
          "type": "address"
        },
        {
          "internalType": "address",
          "name": "tokenAddress",
          "type": "address"
        }
      ],
      "name": "adminSetBurnable",
      "outputs": [],
      "stateMutability": "nonpayable",
      "type": "function"
    },
    {
      "inputs": [
        {
          "internalType": "uint8",
          "name": "originChainID",
          "type": "uint8"
        },
        {
          "internalType": "uint64",
          "name": "depositNonce",
          "type": "uint64"
        },
        {
          "internalType": "bytes32",
          "name": "dataHash",
          "type": "bytes32"
        }
      ],
      "name": "getProposal",
      "outputs": [
        {
          "components": [
            {
              "internalType": "bytes32",
              "name": "_resourceID",
              "type": "bytes32"
            },
            {
              "internalType": "bytes32",
              "name": "_dataHash",
              "type": "bytes32"
            },
            {
              "internalType": "address[]",
              "name": "_yesVotes",
              "type": "address[]"
            },
            {
              "internalType": "address[]",
              "name": "_noVotes",
              "type": "address[]"
            },
            {
              "internalType": "enum Bridge.ProposalStatus",
              "name": "_status",
              "type": "uint8"
            },
            {
              "internalType": "uint256",
              "name": "_proposedBlock",
              "type": "uint256"
            }
          ],
          "internalType": "struct Bridge.Proposal",
          "name": "",
          "type": "tuple"
        }
      ],
      "stateMutability": "view",
      "type": "function"
    },
    {
      "inputs": [],
      "name": "_totalRelayers",
      "outputs": [
        {
          "internalType": "uint256",
          "name": "",
          "type": "uint256"
        }
      ],
      "stateMutability": "view",
      "type": "function"
    },
    {
      "inputs": [
        {
          "internalType": "uint256",
          "name": "newFee",
          "type": "uint256"
        }
      ],
      "name": "adminChangeFee",
      "outputs": [],
      "stateMutability": "nonpayable",
      "type": "function"
    },
    {
      "inputs": [
        {
          "internalType": "address",
          "name": "handlerAddress",
          "type": "address"
        },
        {
          "internalType": "address",
          "name": "tokenAddress",
          "type": "address"
        },
        {
          "internalType": "address",
          "name": "recipient",
          "type": "address"
        },
        {
          "internalType": "uint256",
          "name": "amountOrTokenID",
          "type": "uint256"
        }
      ],
      "name": "adminWithdraw",
      "outputs": [],
      "stateMutability": "nonpayable",
      "type": "function"
    },
    {
      "inputs": [
        {
          "internalType": "uint8",
          "name": "destinationChainID",
          "type": "uint8"
        },
        {
          "internalType": "bytes32",
          "name": "resourceID",
          "type": "bytes32"
        },
        {
          "internalType": "bytes",
          "name": "data",
          "type": "bytes"
        }
      ],
      "name": "deposit",
      "outputs": [],
      "stateMutability": "payable",
      "type": "function"
    },
    {
      "inputs": [
        {
          "internalType": "uint8",
          "name": "chainID",
          "type": "uint8"
        },
        {
          "internalType": "uint64",
          "name": "depositNonce",
          "type": "uint64"
        },
        {
          "internalType": "bytes32",
          "name": "resourceID",
          "type": "bytes32"
        },
        {
          "internalType": "bytes32",
          "name": "dataHash",
          "type": "bytes32"
        }
      ],
      "name": "voteProposal",
      "outputs": [],
      "stateMutability": "nonpayable",
      "type": "function"
    },
    {
      "inputs": [
        {
          "internalType": "uint8",
          "name": "chainID",
          "type": "uint8"
        },
        {
          "internalType": "uint64",
          "name": "depositNonce",
          "type": "uint64"
        },
        {
          "internalType": "bytes32",
          "name": "dataHash",
          "type": "bytes32"
        }
      ],
      "name": "cancelProposal",
      "outputs": [],
      "stateMutability": "nonpayable",
      "type": "function"
    },
    {
      "inputs": [
        {
          "internalType": "uint8",
          "name": "chainID",
          "type": "uint8"
        },
        {
          "internalType": "uint64",
          "name": "depositNonce",
          "type": "uint64"
        },
        {
          "internalType": "bytes",
          "name": "data",
          "type": "bytes"
        },
        {
          "internalType": "bytes32",
          "name": "resourceID",
          "type": "bytes32"
        }
      ],
      "name": "executeProposal",
      "outputs": [],
      "stateMutability": "nonpayable",
      "type": "function"
    },
    {
      "inputs": [
        {
          "internalType": "address payable[]",
          "name": "addrs",
          "type": "address[]"
        },
        {
          "internalType": "uint256[]",
          "name": "amounts",
          "type": "uint256[]"
        }
      ],
      "name": "transferFunds",
      "outputs": [],
      "stateMutability": "nonpayable",
      "type": "function"
    }
  ],
  "bytecode": "0x60806040523480156200001157600080fd5b5060405162002eee38038062002eee83398101604081905262000034916200028b565b6000805460ff1990811682556002805490911660ff8816179055600384905560058390556006829055620000699033620000d1565b60005b8451811015620000c557620000bc7fe2b7fb3b832174769106daebcfd6d1970523240dda11281102db9363b83b0dc4868381518110620000a857fe5b6020026020010151620000e160201b60201c565b6001016200006c565b5050505050506200040e565b620000dd828262000130565b5050565b600082815260016020526040902060020154620001089062000102620001ab565b620001af565b620000d15760405162461bcd60e51b8152600401620001279062000365565b60405180910390fd5b600082815260016020908152604090912062000157918390620017bd620001de821b17901c565b15620000dd5762000167620001ab565b6001600160a01b0316816001600160a01b0316837f2f8788117e7eff1d82e926ec794901d17c78024a50270940304540a733656f0d60405160405180910390a45050565b3390565b60008281526001602090815260408220620001d5918490620017d2620001f5821b17901c565b90505b92915050565b6000620001d5836001600160a01b0384166200020c565b6000620001d5836001600160a01b0384166200025b565b60006200021a83836200025b565b6200025257508154600181810184556000848152602080822090930184905584548482528286019093526040902091909155620001d8565b506000620001d8565b60009081526001919091016020526040902054151590565b80516001600160a01b0381168114620001d857600080fd5b600080600080600060a08688031215620002a3578081fd5b8551620002b081620003fb565b602087810151919650906001600160401b03811115620002ce578283fd5b8701601f81018913620002df578283fd5b8051620002f6620002f082620003db565b620003b4565b81815283810190838501858402850186018d101562000313578687fd5b8694505b8385101562000341576200032c8d8262000273565b83526001949094019391850191850162000317565b5060408b015160608c01516080909c01519a9d919c509a9998509650505050505050565b6020808252602f908201527f416363657373436f6e74726f6c3a2073656e646572206d75737420626520616e60408201526e0818591b5a5b881d1bc819dc985b9d608a1b606082015260800190565b6040518181016001600160401b0381118282101715620003d357600080fd5b604052919050565b60006001600160401b03821115620003f1578081fd5b5060209081020190565b60ff811681146200040b57600080fd5b50565b612ad0806200041e6000396000f3fe6080604052600436106102305760003560e01c806384db809f1161012e578063beab7131116100ab578063cdb0f73a1161006f578063cdb0f73a1461067b578063d547741f1461069b578063d7a9cd79146106bb578063e8437ee7146106d0578063ffaac0eb146106f057610230565b8063beab7131146105ef578063c5b37c2214610611578063c5ec897014610626578063ca15c8731461063b578063cb10f2151461065b57610230565b8063926d7d7f116100f2578063926d7d7f146105635780639d5773e0146105785780639d82dd631461058d578063a217fddf146105ad578063a9cf69fa146105c257610230565b806384db809f146104b65780638c0c2631146104e35780639010d07c1461050357806391c404ac1461052357806391d148541461054357610230565b80634b0b919d116101bc5780635e1fab0f116101805780635e1fab0f1461042c578063780cf0041461044c5780637febe63f1461046c578063802aabe81461048c57806380ae1c28146104a157610230565b80634b0b919d1461036d5780634e0560051461039a57806350598719146103ba578063541d5548146103ea5780635c975abb1461041757610230565b80632f2ff15d116102035780632f2ff15d146102c057806336568abe146102e05780633ee7094a146103005780634454b20d1461032d5780634603ae381461034d57610230565b806305e2ca171461023557806317f03ce51461024a5780631ff013f11461026a578063248a9ca31461028a575b600080fd5b6102486102433660046120e2565b610705565b005b34801561025657600080fd5b5061024861026536600461212e565b610872565b34801561027657600080fd5b5061024861028536600461216b565b61097a565b34801561029657600080fd5b506102aa6102a5366004611fec565b610d75565b6040516102b79190612349565b60405180910390f35b3480156102cc57600080fd5b506102486102db366004612004565b610d8d565b3480156102ec57600080fd5b506102486102fb366004612004565b610dd5565b34801561030c57600080fd5b5061032061031b366004612049565b610e17565b6040516102b79190612445565b34801561033957600080fd5b506102486103483660046121ba565b610ebb565b34801561035957600080fd5b50610248610368366004611f84565b61105e565b34801561037957600080fd5b5061038d6103883660046120c7565b6110ec565b6040516102b791906129ed565b3480156103a657600080fd5b506102486103b5366004611fec565b611107565b3480156103c657600080fd5b506103da6103d536600461207d565b611142565b6040516102b794939291906123a8565b3480156103f657600080fd5b5061040a610405366004611e38565b61117a565b6040516102b7919061233e565b34801561042357600080fd5b5061040a61119a565b34801561043857600080fd5b50610248610447366004611e38565b6111a3565b34801561045857600080fd5b50610248610467366004611e8c565b6111ed565b34801561047857600080fd5b5061040a6104873660046120a8565b611260565b34801561049857600080fd5b506102aa611286565b3480156104ad57600080fd5b506102486112a4565b3480156104c257600080fd5b506104d66104d1366004611fec565b6112b6565b6040516102b79190612306565b3480156104ef57600080fd5b506102486104fe366004611e54565b6112d1565b34801561050f57600080fd5b506104d661051e366004612028565b61133e565b34801561052f57600080fd5b5061024861053e366004611fec565b61135d565b34801561054f57600080fd5b5061040a61055e366004612004565b61138c565b34801561056f57600080fd5b506102aa6113a4565b34801561058457600080fd5b506102aa6113b6565b34801561059957600080fd5b506102486105a8366004611e38565b6113bc565b3480156105b957600080fd5b506102aa61143f565b3480156105ce57600080fd5b506105e26105dd36600461212e565b611444565b6040516102b79190612977565b3480156105fb57600080fd5b50610604611595565b6040516102b79190612a01565b34801561061d57600080fd5b506102aa61159e565b34801561063257600080fd5b506102aa6115a4565b34801561064757600080fd5b506102aa610656366004611fec565b6115aa565b34801561066757600080fd5b50610248610676366004611edc565b6115c1565b34801561068757600080fd5b50610248610696366004611e38565b611652565b3480156106a757600080fd5b506102486106b6366004612004565b6116d6565b3480156106c757600080fd5b506102aa611710565b3480156106dc57600080fd5b506102486106eb366004611f1d565b611716565b3480156106fc57600080fd5b506102486117ad565b61070d6117e7565b60055434146107375760405162461bcd60e51b815260040161072e906125b4565b60405180910390fd5b6000838152600860205260409020546001600160a01b03168061076c5760405162461bcd60e51b815260040161072e9061261b565b60ff8516600081815260076020908152604080832080546001600160401b0380821660010190811667ffffffffffffffff1990921682179092558452600983528184209484529390915290206107c3908585611c3e565b506040516338995da960e01b815282906001600160a01b038216906338995da9906107fc9089908b90879033908c908c906004016123f6565b600060405180830381600087803b15801561081657600080fd5b505af115801561082a573d6000803e3d6000fd5b50505050816001600160401b0316868860ff167fdbb69440df8433824a026ef190652f29929eb64b4d1d5d2a69be8afe3e6eaed860405160405180910390a450505050505050565b61087a61180a565b6001600160481b0360ff848116600885901b68ffffffffffffffff0016179182166000908152600a602090815260408083208684529091529020600481015490911660018160048111156108ca57fe5b14806108e1575060028160048111156108df57fe5b145b6108fd5760405162461bcd60e51b815260040161072e906125e4565b60065461090e43846005015461184f565b1161092b5760405162461bcd60e51b815260040161072e906126d5565b6004828101805460ff19168217905582546040516001600160401b0388169160ff8a1691600080516020612a7b8339815191529161096a918a9061239a565b60405180910390a4505050505050565b610982611891565b61098a6117e7565b6001600160481b0360ff8516600885811b68ffffffffffffffff0016919091179182166000908152600a602090815260408083208684528252808320878452939091529020546001600160a01b03166109f55760405162461bcd60e51b815260040161072e906128f1565b60048082015460019160ff90911690811115610a0d57fe5b1115610a2b5760405162461bcd60e51b815260040161072e906127d9565b6001600160481b0382166000908152600b60209081526040808320868452825280832033845290915290205460ff1615610a775760405162461bcd60e51b815260040161072e90612520565b60048082015460ff1690811115610a8a57fe5b610c02576004805460019081019091556040805160c0810182528681526020810186905281518381528083018352909291830191816020016020820280368337505050815260408051600080825260208083018452808501929092526001838501819052436060909501949094526001600160481b0387168152600a82528281208882528252829020845181558482015193810193909355908301518051610b389260028501920190611cbc565b5060608201518051610b54916003840191602090910190611cbc565b5060808201518160040160006101000a81548160ff02191690836004811115610b7957fe5b021790555060a082015181600501559050503381600201600081548110610b9c57fe5b600091825260209091200180546001600160a01b0319166001600160a01b039290921691909117905560015b856001600160401b03168760ff16600080516020612a7b8339815191528787604051610bf592919061239a565b60405180910390a4610c78565b600654610c1343836005015461184f565b1115610c2d576004818101805460ff191682179055610bc8565b80600101548314610c505760405162461bcd60e51b815260040161072e906128c6565b600281018054600181018255600091825260209091200180546001600160a01b031916331790555b60048181015460ff1681811115610c8b57fe5b14610d6d576001600160481b0382166000908152600b6020908152604080832086845282528083203384529091529020805460ff1916600117905560048082015460ff1690811115610cd957fe5b856001600160401b03168760ff167f25f8daaa4635a7729927ba3f5b3d59cc3320aca7c32c9db4e7ca7b957434364087604051610d169190612349565b60405180910390a4600354600282015410610d6d5760048101805460ff191660029081179091556040516001600160401b0387169060ff891690600080516020612a7b8339815191529061096a908990899061239a565b505050505050565b6000818152600160205260409020600201545b919050565b600082815260016020526040902060020154610dab9061055e6118c5565b610dc75760405162461bcd60e51b815260040161072e906124d1565b610dd182826118c9565b5050565b610ddd6118c5565b6001600160a01b0316816001600160a01b031614610e0d5760405162461bcd60e51b815260040161072e90612928565b610dd18282611932565b60096020908152600092835260408084208252918352918190208054825160026001831615610100026000190190921691909104601f810185900485028201850190935282815292909190830182828015610eb35780601f10610e8857610100808354040283529160200191610eb3565b820191906000526020600020905b815481529060010190602001808311610e9657829003601f168201915b505050505081565b610ec3611891565b610ecb6117e7565b60008181526008602081815260408084205490516001600160a01b039091169368ffffffffffffffff009389901b9390931660ff8a16179291610f1491859189918991016122da565b60408051601f1981840301815291815281516020928301206001600160481b0385166000908152600a84528281208282529093529120909150600260048083015460ff1690811115610f6257fe5b14610f7f5760405162461bcd60e51b815260040161072e906126a0565b80600101548214610fa25760405162461bcd60e51b815260040161072e90612734565b6004818101805460ff19166003179055815460405163712467f960e11b815286926001600160a01b0384169263e248cff292610fe2928d918d91016123d3565b600060405180830381600087803b158015610ffc57600080fd5b505af1158015611010573d6000803e3d6000fd5b506003925061101d915050565b896001600160401b03168b60ff16600080516020612a7b833981519152898760405161104a92919061239a565b60405180910390a450505050505050505050565b61106661199b565b60005b838110156110e55784848281811061107d57fe5b90506020020160208101906110929190611e38565b6001600160a01b03166108fc8484848181106110aa57fe5b905060200201359081150290604051600060405180830381858888f193505050501580156110dc573d6000803e3d6000fd5b50600101611069565b5050505050565b6007602052600090815260409020546001600160401b031681565b61110f61199b565b600381905560405181907fa20d6b84cd798a24038be305eff8a45ca82ef54a2aa2082005d8e14c0a4746c890600090a250565b600a60209081526000928352604080842090915290825290208054600182015460048301546005909301549192909160ff9091169084565b6000611194600080516020612a5b8339815191528361138c565b92915050565b60005460ff1690565b6111ab61199b565b336001600160a01b03821614156111d45760405162461bcd60e51b815260040161072e906127a2565b6111df600082610d8d565b6111ea600033610dd5565b50565b6111f561199b565b604051636ce5768960e11b815284906001600160a01b0382169063d9caed12906112279087908790879060040161231a565b600060405180830381600087803b15801561124157600080fd5b505af1158015611255573d6000803e3d6000fd5b505050505050505050565b600b60209081526000938452604080852082529284528284209052825290205460ff1681565b600061129f600080516020612a5b8339815191526115aa565b905090565b6112ac61199b565b6112b46119c2565b565b6008602052600090815260409020546001600160a01b031681565b6112d961199b565b6040516307b7ed9960e01b815282906001600160a01b038216906307b7ed9990611307908590600401612306565b600060405180830381600087803b15801561132157600080fd5b505af1158015611335573d6000803e3d6000fd5b50505050505050565b60008281526001602052604081206113569083611a11565b9392505050565b61136561199b565b8060055414156113875760405162461bcd60e51b815260040161072e9061288f565b600555565b600082815260016020526040812061135690836117d2565b600080516020612a5b83398151915281565b60045481565b6113d4600080516020612a5b8339815191528261138c565b6113f05760405162461bcd60e51b815260040161072e9061257d565b611408600080516020612a5b833981519152826116d6565b6040516001600160a01b038216907f10e1f7ce9fd7d1b90a66d13a2ab3cb8dd7f29f3f8d520b143b063ccfbab6906b90600090a250565b600081565b61144c611d1d565b68ffffffffffffffff00600884901b1660ff8516176001600160481b0381166000908152600a60209081526040808320868452825291829020825160c08101845281548152600182015481840152600282018054855181860281018601875281815292959394938601938301828280156114ef57602002820191906000526020600020905b81546001600160a01b031681526001909101906020018083116114d1575b505050505081526020016003820180548060200260200160405190810160405280929190818152602001828054801561155157602002820191906000526020600020905b81546001600160a01b03168152600190910190602001808311611533575b505050918352505060048281015460209092019160ff169081111561157257fe5b600481111561157d57fe5b81526020016005820154815250509150509392505050565b60025460ff1681565b60055481565b60065481565b600081815260016020526040812061119490611a1d565b6115c961199b565b6000828152600860205260409081902080546001600160a01b0319166001600160a01b0386169081179091559051635c7d1b9b60e11b815284919063b8fa37369061161a9086908690600401612352565b600060405180830381600087803b15801561163457600080fd5b505af1158015611648573d6000803e3d6000fd5b5050505050505050565b61166a600080516020612a5b8339815191528261138c565b156116875760405162461bcd60e51b815260040161072e9061276b565b61169f600080516020612a5b83398151915282610d8d565b6040516001600160a01b038216907f03580ee9f53a62b7cb409a2cb56f9be87747dd15017afc5cef6eef321e4fb2c590600090a250565b6000828152600160205260409020600201546116f49061055e6118c5565b610e0d5760405162461bcd60e51b815260040161072e90612650565b60035481565b61171e61199b565b6000848152600860205260409081902080546001600160a01b0319166001600160a01b0388169081179091559051635dd40c2d60e11b815286919063bba8185a90611773908890889088908890600401612369565b600060405180830381600087803b15801561178d57600080fd5b505af11580156117a1573d6000803e3d6000fd5b50505050505050505050565b6117b561199b565b6112b4611a28565b6000611356836001600160a01b038416611a6a565b6000611356836001600160a01b038416611ab4565b60005460ff16156112b45760405162461bcd60e51b815260040161072e9061270a565b61181560003361138c565b806118335750611833600080516020612a5b8339815191523361138c565b6112b45760405162461bcd60e51b815260040161072e9061249a565b600061135683836040518060400160405280601e81526020017f536166654d6174683a207375627472616374696f6e206f766572666c6f770000815250611acc565b6118a9600080516020612a5b8339815191523361138c565b6112b45760405162461bcd60e51b815260040161072e90612823565b3390565b60008281526001602052604090206118e190826117bd565b15610dd1576118ee6118c5565b6001600160a01b0316816001600160a01b0316837f2f8788117e7eff1d82e926ec794901d17c78024a50270940304540a733656f0d60405160405180910390a45050565b600082815260016020526040902061194a9082611af8565b15610dd1576119576118c5565b6001600160a01b0316816001600160a01b0316837ff6391f5c32d9c69d2a47ea670b442974b53935d1edc7fd64eb21e047a839171b60405160405180910390a45050565b6119a660003361138c565b6112b45760405162461bcd60e51b815260040161072e90612858565b6119ca6117e7565b6000805460ff191660011790556040517f62e78cea01bee320cd4e420270b5ea74000d11b0c9f74754ebdbfc544b05a25890611a07903390612306565b60405180910390a1565b60006113568383611b0d565b600061119482611b52565b611a30611b56565b6000805460ff191690556040517f5db9ee0a495bf2e6ff9c91a7834c1ba4fdd244a5e8aa4e537bd38aeae4b073aa90611a07903390612306565b6000611a768383611ab4565b611aac57508154600181810184556000848152602080822090930184905584548482528286019093526040902091909155611194565b506000611194565b60009081526001919091016020526040902054151590565b60008184841115611af05760405162461bcd60e51b815260040161072e9190612445565b505050900390565b6000611356836001600160a01b038416611b78565b81546000908210611b305760405162461bcd60e51b815260040161072e90612458565b826000018281548110611b3f57fe5b9060005260206000200154905092915050565b5490565b60005460ff166112b45760405162461bcd60e51b815260040161072e9061254f565b60008181526001830160205260408120548015611c345783546000198083019190810190600090879083908110611bab57fe5b9060005260206000200154905080876000018481548110611bc857fe5b600091825260208083209091019290925582815260018981019092526040902090840190558654879080611bf857fe5b60019003818190600052602060002001600090559055866001016000878152602001908152602001600020600090556001945050505050611194565b6000915050611194565b828054600181600116156101000203166002900490600052602060002090601f016020900481019282601f10611c7f5782800160ff19823516178555611cac565b82800160010185558215611cac579182015b82811115611cac578235825591602001919060010190611c91565b50611cb8929150611d55565b5090565b828054828255906000526020600020908101928215611d11579160200282015b82811115611d1157825182546001600160a01b0319166001600160a01b03909116178255602090920191600190910190611cdc565b50611cb8929150611d6a565b6040805160c0810182526000808252602082018190526060928201839052828201929092529060808201908152602001600081525090565b5b80821115611cb85760008155600101611d56565b5b80821115611cb85780546001600160a01b0319168155600101611d6b565b60008083601f840112611d9a578182fd5b5081356001600160401b03811115611db0578182fd5b6020830191508360208083028501011115611dca57600080fd5b9250929050565b60008083601f840112611de2578182fd5b5081356001600160401b03811115611df8578182fd5b602083019150836020828501011115611dca57600080fd5b80356001600160401b038116811461119457600080fd5b803560ff8116811461119457600080fd5b600060208284031215611e49578081fd5b813561135681612a1a565b60008060408385031215611e66578081fd5b8235611e7181612a1a565b91506020830135611e8181612a1a565b809150509250929050565b60008060008060808587031215611ea1578182fd5b8435611eac81612a1a565b93506020850135611ebc81612a1a565b92506040850135611ecc81612a1a565b9396929550929360600135925050565b600080600060608486031215611ef0578283fd5b8335611efb81612a1a565b9250602084013591506040840135611f1281612a1a565b809150509250925092565b600080600080600060a08688031215611f34578081fd5b8535611f3f81612a1a565b9450602086013593506040860135611f5681612a1a565b92506060860135611f6681612a2f565b91506080860135611f7681612a2f565b809150509295509295909350565b60008060008060408587031215611f99578384fd5b84356001600160401b0380821115611faf578586fd5b611fbb88838901611d89565b90965094506020870135915080821115611fd3578384fd5b50611fe087828801611d89565b95989497509550505050565b600060208284031215611ffd578081fd5b5035919050565b60008060408385031215612016578182fd5b823591506020830135611e8181612a1a565b6000806040838503121561203a578182fd5b50508035926020909101359150565b6000806040838503121561205b578081fd5b6120658484611e10565b91506120748460208501611e27565b90509250929050565b6000806040838503121561208f578182fd5b823561209a81612a45565b946020939093013593505050565b6000806000606084860312156120bc578081fd5b8335611efb81612a45565b6000602082840312156120d8578081fd5b6113568383611e27565b600080600080606085870312156120f7578182fd5b6121018686611e27565b93506020850135925060408501356001600160401b03811115612122578283fd5b611fe087828801611dd1565b600080600060608486031215612142578081fd5b61214c8585611e27565b925061215b8560208601611e10565b9150604084013590509250925092565b60008060008060808587031215612180578182fd5b61218a8686611e27565b935060208501356001600160401b03811681146121a5578283fd5b93969395505050506040820135916060013590565b6000806000806000608086880312156121d1578283fd5b6121db8787611e27565b94506121ea8760208801611e10565b935060408601356001600160401b03811115612204578384fd5b61221088828901611dd1565b96999598509660600135949350505050565b6000815180845260208085019450808401835b8381101561225a5781516001600160a01b031687529582019590820190600101612235565b509495945050505050565b60008284528282602086013780602084860101526020601f19601f85011685010190509392505050565b60008151808452815b818110156122b457602081850181015186830182015201612298565b818111156122c55782602083870101525b50601f01601f19169290920160200192915050565b60006bffffffffffffffffffffffff198560601b16825282846014840137910160140190815292915050565b6001600160a01b0391909116815260200190565b6001600160a01b039384168152919092166020820152604081019190915260600190565b901515815260200190565b90815260200190565b9182526001600160a01b0316602082015260400190565b9384526001600160a01b039290921660208401526001600160e01b0319908116604084015216606082015260800190565b918252602082015260400190565b84815260208101849052608081016123bf84612a0f565b604083015282606083015295945050505050565b6000848252604060208301526123ed604083018486612265565b95945050505050565b86815260ff861660208201526001600160401b03851660408201526001600160a01b038416606082015260a0608082018190526000906124399083018486612265565b98975050505050505050565b600060208252611356602083018461228f565b60208082526022908201527f456e756d657261626c655365743a20696e646578206f7574206f6620626f756e604082015261647360f01b606082015260800190565b6020808252601e908201527f73656e646572206973206e6f742072656c61796572206f722061646d696e0000604082015260600190565b6020808252602f908201527f416363657373436f6e74726f6c3a2073656e646572206d75737420626520616e60408201526e0818591b5a5b881d1bc819dc985b9d608a1b606082015260800190565b6020808252601590820152741c995b185e595c88185b1c9958591e481d9bdd1959605a1b604082015260600190565b60208082526014908201527314185d5cd8589b194e881b9bdd081c185d5cd95960621b604082015260600190565b6020808252601f908201527f6164647220646f65736e277420686176652072656c6179657220726f6c652100604082015260600190565b602080825260169082015275125b98dbdc9c9958dd08199959481cdd5c1c1b1a595960521b604082015260600190565b6020808252601c908201527f50726f706f73616c2063616e6e6f742062652063616e63656c6c656400000000604082015260600190565b6020808252818101527f7265736f757263654944206e6f74206d617070656420746f2068616e646c6572604082015260600190565b60208082526030908201527f416363657373436f6e74726f6c3a2073656e646572206d75737420626520616e60408201526f2061646d696e20746f207265766f6b6560801b606082015260800190565b6020808252818101527f50726f706f73616c206d75737420686176652050617373656420737461747573604082015260600190565b6020808252818101527f50726f706f73616c206e6f7420617420657870697279207468726573686f6c64604082015260600190565b60208082526010908201526f14185d5cd8589b194e881c185d5cd95960821b604082015260600190565b6020808252601b908201527f4461746120646f65736e2774206d617463682064617461686173680000000000604082015260600190565b6020808252601e908201527f6164647220616c7265616479206861732072656c6179657220726f6c65210000604082015260600190565b60208082526017908201527f43616e6e6f742072656e6f756e6365206f6e6573656c66000000000000000000604082015260600190565b6020808252602a908201527f70726f706f73616c20616c7265616479207061737365642f65786563757465646040820152690bd8d85b98d95b1b195960b21b606082015260800190565b6020808252818101527f73656e64657220646f65736e277420686176652072656c6179657220726f6c65604082015260600190565b6020808252601e908201527f73656e64657220646f65736e277420686176652061646d696e20726f6c650000604082015260600190565b6020808252601f908201527f43757272656e742066656520697320657175616c20746f206e65772066656500604082015260600190565b6020808252601190820152700c8c2e8c2d0c2e6d040dad2e6dac2e8c6d607b1b604082015260600190565b60208082526019908201527f6e6f2068616e646c657220666f72207265736f75726365494400000000000000604082015260600190565b6020808252602f908201527f416363657373436f6e74726f6c3a2063616e206f6e6c792072656e6f756e636560408201526e103937b632b9903337b91039b2b63360891b606082015260800190565b6000602082528251602083015260208301516040830152604083015160c060608401526129a760e0840182612222565b90506060840151601f198483030160808501526129c48282612222565b9150506129d46080850151612a0f565b60a084015260a084015160c08401528091505092915050565b6001600160401b0391909116815260200190565b60ff91909116815260200190565b8060058110610d8857fe5b6001600160a01b03811681146111ea57600080fd5b6001600160e01b0319811681146111ea57600080fd5b6001600160481b03811681146111ea57600080fdfee2b7fb3b832174769106daebcfd6d1970523240dda11281102db9363b83b0dc4803c5a12f6bde629cea32e63d4b92d1b560816a6fb72e939d3c89e1cab650417a26469706673582212208c23220017c5ba31d4f43589a26e47e6c5b01759045db945b9eaf54506d0d06c64736f6c634300060c0033",
  "immutableReferences": {},
  "source": "pragma solidity 0.6.12;\npragma experimental ABIEncoderV2;\n\nimport \"@openzeppelin/contracts/access/AccessControl.sol\";\nimport \"./utils/Pausable.sol\";\nimport \"./utils/SafeMath.sol\";\nimport \"./interfaces/IDepositExecute.sol\";\nimport \"./interfaces/IERCHandler.sol\";\nimport \"./interfaces/IGenericHandler.sol\";\n\n/**\n    @title Facilitates deposits, creation and votiing of deposit proposals, and deposit executions.\n    @author ChainSafe Systems.\n */\ncontract Bridge is Pausable, AccessControl, SafeMath {\n\n    uint8   public _chainID;\n    uint256 public _relayerThreshold;\n    uint256 public _totalProposals;\n    uint256 public _fee;\n    uint256 public _expiry;\n\n    enum ProposalStatus {Inactive, Active, Passed, Executed, Cancelled}\n\n    struct Proposal {\n        bytes32 _resourceID;\n        bytes32 _dataHash;\n        address[] _yesVotes;\n        address[] _noVotes;\n        ProposalStatus _status;\n        uint256 _proposedBlock;\n    }\n\n    // destinationChainID => number of deposits\n    mapping(uint8 => uint64) public _depositCounts;\n    // resourceID => handler address\n    mapping(bytes32 => address) public _resourceIDToHandlerAddress;\n    // depositNonce => destinationChainID => bytes\n    mapping(uint64 => mapping(uint8 => bytes)) public _depositRecords;\n    // destinationChainID + depositNonce => dataHash => Proposal\n    mapping(uint72 => mapping(bytes32 => Proposal)) public _proposals;\n    // destinationChainID + depositNonce => dataHash => relayerAddress => bool\n    mapping(uint72 => mapping(bytes32 => mapping(address => bool))) public _hasVotedOnProposal;\n\n    event RelayerThresholdChanged(uint indexed newThreshold);\n    event RelayerAdded(address indexed relayer);\n    event RelayerRemoved(address indexed relayer);\n    event Deposit(\n        uint8   indexed destinationChainID,\n        bytes32 indexed resourceID,\n        uint64  indexed depositNonce\n    );\n    event ProposalEvent(\n        uint8           indexed originChainID,\n        uint64          indexed depositNonce,\n        ProposalStatus  indexed status,\n        bytes32 resourceID,\n        bytes32 dataHash\n    );\n\n    event ProposalVote(\n        uint8   indexed originChainID,\n        uint64  indexed depositNonce,\n        ProposalStatus indexed status,\n        bytes32 resourceID\n    );\n\n    bytes32 public constant RELAYER_ROLE = keccak256(\"RELAYER_ROLE\");\n\n    modifier onlyAdmin() {\n        _onlyAdmin();\n        _;\n    }\n\n    modifier onlyAdminOrRelayer() {\n        _onlyAdminOrRelayer();\n        _;\n    }\n\n    modifier onlyRelayers() {\n        _onlyRelayers();\n        _;\n    }\n\n    function _onlyAdminOrRelayer() private view {\n        require(hasRole(DEFAULT_ADMIN_ROLE, msg.sender) || hasRole(RELAYER_ROLE, msg.sender),\n            \"sender is not relayer or admin\");\n    }\n\n    function _onlyAdmin() private view {\n        require(hasRole(DEFAULT_ADMIN_ROLE, msg.sender), \"sender doesn't have admin role\");\n    }\n\n    function _onlyRelayers() private view {\n        require(hasRole(RELAYER_ROLE, msg.sender), \"sender doesn't have relayer role\");\n    }\n\n    /**\n        @notice Initializes Bridge, creates and grants {msg.sender} the admin role,\n        creates and grants {initialRelayers} the relayer role.\n        @param chainID ID of chain the Bridge contract exists on.\n        @param initialRelayers Addresses that should be initially granted the relayer role.\n        @param initialRelayerThreshold Number of votes needed for a deposit proposal to be considered passed.\n     */\n    constructor (uint8 chainID, address[] memory initialRelayers, uint initialRelayerThreshold, uint256 fee, uint256 expiry) public {\n        _chainID = chainID;\n        _relayerThreshold = initialRelayerThreshold;\n        _fee = fee;\n        _expiry = expiry;\n\n        _setupRole(DEFAULT_ADMIN_ROLE, msg.sender);\n\n        for (uint i; i < initialRelayers.length; i++) {\n            grantRole(RELAYER_ROLE, initialRelayers[i]);\n        }\n\n    }\n\n    /**\n        @notice Returns true if {relayer} has the relayer role.\n        @param relayer Address to check.\n     */\n    function isRelayer(address relayer) external view returns (bool) {\n        return hasRole(RELAYER_ROLE, relayer);\n    }\n\n    /**\n        @notice Removes admin role from {msg.sender} and grants it to {newAdmin}.\n        @notice Only callable by an address that currently has the admin role.\n        @param newAdmin Address that admin role will be granted to.\n     */\n    function renounceAdmin(address newAdmin) external onlyAdmin {\n        require(msg.sender != newAdmin, 'Cannot renounce oneself');\n        grantRole(DEFAULT_ADMIN_ROLE, newAdmin);\n        renounceRole(DEFAULT_ADMIN_ROLE, msg.sender);\n    }\n\n    /**\n        @notice Pauses deposits, proposal creation and voting, and deposit executions.\n        @notice Only callable by an address that currently has the admin role.\n     */\n    function adminPauseTransfers() external onlyAdmin {\n        _pause();\n    }\n\n    /**\n        @notice Unpauses deposits, proposal creation and voting, and deposit executions.\n        @notice Only callable by an address that currently has the admin role.\n     */\n    function adminUnpauseTransfers() external onlyAdmin {\n        _unpause();\n    }\n\n    /**\n        @notice Modifies the number of votes required for a proposal to be considered passed.\n        @notice Only callable by an address that currently has the admin role.\n        @param newThreshold Value {_relayerThreshold} will be changed to.\n        @notice Emits {RelayerThresholdChanged} event.\n     */\n    function adminChangeRelayerThreshold(uint newThreshold) external onlyAdmin {\n        _relayerThreshold = newThreshold;\n        emit RelayerThresholdChanged(newThreshold);\n    }\n\n    /**\n        @notice Grants {relayerAddress} the relayer role.\n        @notice Only callable by an address that currently has the admin role, which is\n                checked in grantRole().\n        @param relayerAddress Address of relayer to be added.\n        @notice Emits {RelayerAdded} event.\n     */\n    function adminAddRelayer(address relayerAddress) external {\n        require(!hasRole(RELAYER_ROLE, relayerAddress), \"addr already has relayer role!\");\n        grantRole(RELAYER_ROLE, relayerAddress);\n        emit RelayerAdded(relayerAddress);\n    }\n\n    /**\n        @notice Removes relayer role for {relayerAddress}.\n        @notice Only callable by an address that currently has the admin role, which is\n                checked in revokeRole().\n        @param relayerAddress Address of relayer to be removed.\n        @notice Emits {RelayerRemoved} event.\n     */\n    function adminRemoveRelayer(address relayerAddress) external {\n        require(hasRole(RELAYER_ROLE, relayerAddress), \"addr doesn't have relayer role!\");\n        revokeRole(RELAYER_ROLE, relayerAddress);\n        emit RelayerRemoved(relayerAddress);\n    }\n\n    /**\n        @notice Sets a new resource for handler contracts that use the IERCHandler interface,\n        and maps the {handlerAddress} to {resourceID} in {_resourceIDToHandlerAddress}.\n        @notice Only callable by an address that currently has the admin role.\n        @param handlerAddress Address of handler resource will be set for.\n        @param resourceID ResourceID to be used when making deposits.\n        @param tokenAddress Address of contract to be called when a deposit is made and a deposited is executed.\n     */\n    function adminSetResource(address handlerAddress, bytes32 resourceID, address tokenAddress) external onlyAdmin {\n        _resourceIDToHandlerAddress[resourceID] = handlerAddress;\n        IERCHandler handler = IERCHandler(handlerAddress);\n        handler.setResource(resourceID, tokenAddress);\n    }\n\n    /**\n        @notice Sets a new resource for handler contracts that use the IGenericHandler interface,\n        and maps the {handlerAddress} to {resourceID} in {_resourceIDToHandlerAddress}.\n        @notice Only callable by an address that currently has the admin role.\n        @param handlerAddress Address of handler resource will be set for.\n        @param resourceID ResourceID to be used when making deposits.\n        @param contractAddress Address of contract to be called when a deposit is made and a deposited is executed.\n     */\n    function adminSetGenericResource(\n        address handlerAddress,\n        bytes32 resourceID,\n        address contractAddress,\n        bytes4 depositFunctionSig,\n        bytes4 executeFunctionSig\n    ) external onlyAdmin {\n        _resourceIDToHandlerAddress[resourceID] = handlerAddress;\n        IGenericHandler handler = IGenericHandler(handlerAddress);\n        handler.setResource(resourceID, contractAddress, depositFunctionSig, executeFunctionSig);\n    }\n\n    /**\n        @notice Sets a resource as burnable for handler contracts that use the IERCHandler interface.\n        @notice Only callable by an address that currently has the admin role.\n        @param handlerAddress Address of handler resource will be set for.\n        @param tokenAddress Address of contract to be called when a deposit is made and a deposited is executed.\n     */\n    function adminSetBurnable(address handlerAddress, address tokenAddress) external onlyAdmin {\n        IERCHandler handler = IERCHandler(handlerAddress);\n        handler.setBurnable(tokenAddress);\n    }\n\n    /**\n        @notice Returns a proposal.\n        @param originChainID Chain ID deposit originated from.\n        @param depositNonce ID of proposal generated by proposal's origin Bridge contract.\n        @param dataHash Hash of data to be provided when deposit proposal is executed.\n        @return Proposal which consists of:\n        - _dataHash Hash of data to be provided when deposit proposal is executed.\n        - _yesVotes Number of votes in favor of proposal.\n        - _noVotes Number of votes against proposal.\n        - _status Current status of proposal.\n     */\n    function getProposal(uint8 originChainID, uint64 depositNonce, bytes32 dataHash) external view returns (Proposal memory) {\n        uint72 nonceAndID = (uint72(depositNonce) << 8) | uint72(originChainID);\n        return _proposals[nonceAndID][dataHash];\n    }\n\n    /**\n        @notice Returns total relayers number.\n        @notice Added for backwards compatibility.\n     */\n    function _totalRelayers() external view returns (uint) {\n        return AccessControl.getRoleMemberCount(RELAYER_ROLE);\n    }\n\n    /**\n        @notice Changes deposit fee.\n        @notice Only callable by admin.\n        @param newFee Value {_fee} will be updated to.\n     */\n    function adminChangeFee(uint newFee) external onlyAdmin {\n        require(_fee != newFee, \"Current fee is equal to new fee\");\n        _fee = newFee;\n    }\n\n    /**\n        @notice Used to manually withdraw funds from ERC safes.\n        @param handlerAddress Address of handler to withdraw from.\n        @param tokenAddress Address of token to withdraw.\n        @param recipient Address to withdraw tokens to.\n        @param amountOrTokenID Either the amount of ERC20 tokens or the ERC721 token ID to withdraw.\n     */\n    function adminWithdraw(\n        address handlerAddress,\n        address tokenAddress,\n        address recipient,\n        uint256 amountOrTokenID\n    ) external onlyAdmin {\n        IERCHandler handler = IERCHandler(handlerAddress);\n        handler.withdraw(tokenAddress, recipient, amountOrTokenID);\n    }\n\n    /**\n        @notice Initiates a transfer using a specified handler contract.\n        @notice Only callable when Bridge is not paused.\n        @param destinationChainID ID of chain deposit will be bridged to.\n        @param resourceID ResourceID used to find address of handler to be used for deposit.\n        @param data Additional data to be passed to specified handler.\n        @notice Emits {Deposit} event.\n     */\n    function deposit(uint8 destinationChainID, bytes32 resourceID, bytes calldata data) external payable whenNotPaused {\n        require(msg.value == _fee, \"Incorrect fee supplied\");\n\n        address handler = _resourceIDToHandlerAddress[resourceID];\n        require(handler != address(0), \"resourceID not mapped to handler\");\n\n        uint64 depositNonce = ++_depositCounts[destinationChainID];\n        _depositRecords[depositNonce][destinationChainID] = data;\n\n        IDepositExecute depositHandler = IDepositExecute(handler);\n        depositHandler.deposit(resourceID, destinationChainID, depositNonce, msg.sender, data);\n\n        emit Deposit(destinationChainID, resourceID, depositNonce);\n    }\n\n    /**\n        @notice When called, {msg.sender} will be marked as voting in favor of proposal.\n        @notice Only callable by relayers when Bridge is not paused.\n        @param chainID ID of chain deposit originated from.\n        @param depositNonce ID of deposited generated by origin Bridge contract.\n        @param dataHash Hash of data provided when deposit was made.\n        @notice Proposal must not have already been passed or executed.\n        @notice {msg.sender} must not have already voted on proposal.\n        @notice Emits {ProposalEvent} event with status indicating the proposal status.\n        @notice Emits {ProposalVote} event.\n     */\n    function voteProposal(uint8 chainID, uint64 depositNonce, bytes32 resourceID, bytes32 dataHash) external onlyRelayers whenNotPaused {\n\n        uint72 nonceAndID = (uint72(depositNonce) << 8) | uint72(chainID);\n        Proposal storage proposal = _proposals[nonceAndID][dataHash];\n\n        require(_resourceIDToHandlerAddress[resourceID] != address(0), \"no handler for resourceID\");\n        require(uint(proposal._status) <= 1, \"proposal already passed/executed/cancelled\");\n        require(!_hasVotedOnProposal[nonceAndID][dataHash][msg.sender], \"relayer already voted\");\n\n        if (uint(proposal._status) == 0) {\n            ++_totalProposals;\n            _proposals[nonceAndID][dataHash] = Proposal({\n                _resourceID : resourceID,\n                _dataHash : dataHash,\n                _yesVotes : new address[](1),\n                _noVotes : new address[](0),\n                _status : ProposalStatus.Active,\n                _proposedBlock : block.number\n                });\n\n            proposal._yesVotes[0] = msg.sender;\n            emit ProposalEvent(chainID, depositNonce, ProposalStatus.Active, resourceID, dataHash);\n        } else {\n            if (sub(block.number, proposal._proposedBlock) > _expiry) {\n                // if the number of blocks that has passed since this proposal was\n                // submitted exceeds the expiry threshold set, cancel the proposal\n                proposal._status = ProposalStatus.Cancelled;\n                emit ProposalEvent(chainID, depositNonce, ProposalStatus.Cancelled, resourceID, dataHash);\n            } else {\n                require(dataHash == proposal._dataHash, \"datahash mismatch\");\n                proposal._yesVotes.push(msg.sender);\n\n\n            }\n\n        }\n        if (proposal._status != ProposalStatus.Cancelled) {\n            _hasVotedOnProposal[nonceAndID][dataHash][msg.sender] = true;\n            emit ProposalVote(chainID, depositNonce, proposal._status, resourceID);\n\n            // Finalize if _relayerThreshold has been reached\n            if (proposal._yesVotes.length >= _relayerThreshold) {\n                proposal._status = ProposalStatus.Passed;\n\n                emit ProposalEvent(chainID, depositNonce, ProposalStatus.Passed, resourceID, dataHash);\n            }\n        }\n\n    }\n\n    /**\n        @notice Cancels a deposit proposal that has not been executed yet.\n        @notice Only callable by relayers when Bridge is not paused.\n        @param chainID ID of chain deposit originated from.\n        @param depositNonce ID of deposited generated by origin Bridge contract.\n        @param dataHash Hash of data originally provided when deposit was made.\n        @notice Proposal must be past expiry threshold.\n        @notice Emits {ProposalEvent} event with status {Cancelled}.\n     */\n    function cancelProposal(uint8 chainID, uint64 depositNonce, bytes32 dataHash) public onlyAdminOrRelayer {\n        uint72 nonceAndID = (uint72(depositNonce) << 8) | uint72(chainID);\n        Proposal storage proposal = _proposals[nonceAndID][dataHash];\n        ProposalStatus currentStatus = proposal._status;\n\n        require(currentStatus == ProposalStatus.Active || currentStatus == ProposalStatus.Passed,\n            \"Proposal cannot be cancelled\");\n        require(sub(block.number, proposal._proposedBlock) > _expiry, \"Proposal not at expiry threshold\");\n\n        proposal._status = ProposalStatus.Cancelled;\n        emit ProposalEvent(chainID, depositNonce, ProposalStatus.Cancelled, proposal._resourceID, dataHash);\n    }\n\n    /**\n        @notice Executes a deposit proposal that is considered passed using a specified handler contract.\n        @notice Only callable by relayers when Bridge is not paused.\n        @param chainID ID of chain deposit originated from.\n        @param resourceID ResourceID to be used when making deposits.\n        @param depositNonce ID of deposited generated by origin Bridge contract.\n        @param data Data originally provided when deposit was made.\n        @notice Proposal must have Passed status.\n        @notice Hash of {data} must equal proposal's {dataHash}.\n        @notice Emits {ProposalEvent} event with status {Executed}.\n     */\n    function executeProposal(uint8 chainID, uint64 depositNonce, bytes calldata data, bytes32 resourceID) external onlyRelayers whenNotPaused {\n        address handler = _resourceIDToHandlerAddress[resourceID];\n        uint72 nonceAndID = (uint72(depositNonce) << 8) | uint72(chainID);\n        bytes32 dataHash = keccak256(abi.encodePacked(handler, data));\n        Proposal storage proposal = _proposals[nonceAndID][dataHash];\n\n        require(proposal._status == ProposalStatus.Passed, \"Proposal must have Passed status\");\n        require(dataHash == proposal._dataHash, \"Data doesn't match datahash\");\n\n        proposal._status = ProposalStatus.Executed;\n\n        IDepositExecute depositHandler = IDepositExecute(handler);\n        depositHandler.executeProposal(proposal._resourceID, data);\n\n        emit ProposalEvent(chainID, depositNonce, ProposalStatus.Executed, resourceID, dataHash);\n    }\n\n    /**\n        @notice Transfers eth in the contract to the specified addresses. The parameters addrs and amounts are mapped 1-1.\n        This means that the address at index 0 for addrs will receive the amount (in WEI) from amounts at index 0.\n        @param addrs Array of addresses to transfer {amounts} to.\n        @param amounts Array of amonuts to transfer to {addrs}.\n     */\n    function transferFunds(address payable[] calldata addrs, uint[] calldata amounts) external onlyAdmin {\n        for (uint i = 0; i < addrs.length; i++) {\n            addrs[i].transfer(amounts[i]);\n        }\n    }\n\n}\n",
  "sourcePath": "/root/chainbridge-deploy/cb-sol-cli/chainbridge-solidity/contracts/Bridge.sol",
  "compiler": {
    "name": "solc",
    "version": "0.6.12+commit.27d51765.Emscripten.clang"
  },
  "schemaVersion": "3.1.0",
  "updatedAt": "2021-04-25T20:54:19.563Z",
  "devdoc": {
    "author": "ChainSafe Systems.",
    "kind": "dev",
    "methods": {
      "adminAddRelayer(address)": {
        "params": {
          "relayerAddress": "Address of relayer to be added."
        }
      },
      "adminChangeFee(uint256)": {
        "params": {
          "newFee": "Value {_fee} will be updated to."
        }
      },
      "adminChangeRelayerThreshold(uint256)": {
        "params": {
          "newThreshold": "Value {_relayerThreshold} will be changed to."
        }
      },
      "adminRemoveRelayer(address)": {
        "params": {
          "relayerAddress": "Address of relayer to be removed."
        }
      },
      "adminSetBurnable(address,address)": {
        "params": {
          "handlerAddress": "Address of handler resource will be set for.",
          "tokenAddress": "Address of contract to be called when a deposit is made and a deposited is executed."
        }
      },
      "adminSetGenericResource(address,bytes32,address,bytes4,bytes4)": {
        "params": {
          "contractAddress": "Address of contract to be called when a deposit is made and a deposited is executed.",
          "handlerAddress": "Address of handler resource will be set for.",
          "resourceID": "ResourceID to be used when making deposits."
        }
      },
      "adminSetResource(address,bytes32,address)": {
        "params": {
          "handlerAddress": "Address of handler resource will be set for.",
          "resourceID": "ResourceID to be used when making deposits.",
          "tokenAddress": "Address of contract to be called when a deposit is made and a deposited is executed."
        }
      },
      "adminWithdraw(address,address,address,uint256)": {
        "params": {
          "amountOrTokenID": "Either the amount of ERC20 tokens or the ERC721 token ID to withdraw.",
          "handlerAddress": "Address of handler to withdraw from.",
          "recipient": "Address to withdraw tokens to.",
          "tokenAddress": "Address of token to withdraw."
        }
      },
      "cancelProposal(uint8,uint64,bytes32)": {
        "params": {
          "chainID": "ID of chain deposit originated from.",
          "dataHash": "Hash of data originally provided when deposit was made.",
          "depositNonce": "ID of deposited generated by origin Bridge contract."
        }
      },
      "constructor": {
        "params": {
          "chainID": "ID of chain the Bridge contract exists on.",
          "initialRelayerThreshold": "Number of votes needed for a deposit proposal to be considered passed.",
          "initialRelayers": "Addresses that should be initially granted the relayer role."
        }
      },
      "deposit(uint8,bytes32,bytes)": {
        "params": {
          "data": "Additional data to be passed to specified handler.",
          "destinationChainID": "ID of chain deposit will be bridged to.",
          "resourceID": "ResourceID used to find address of handler to be used for deposit."
        }
      },
      "executeProposal(uint8,uint64,bytes,bytes32)": {
        "params": {
          "chainID": "ID of chain deposit originated from.",
          "data": "Data originally provided when deposit was made.",
          "depositNonce": "ID of deposited generated by origin Bridge contract.",
          "resourceID": "ResourceID to be used when making deposits."
        }
      },
      "getProposal(uint8,uint64,bytes32)": {
        "params": {
          "dataHash": "Hash of data to be provided when deposit proposal is executed.",
          "depositNonce": "ID of proposal generated by proposal's origin Bridge contract.",
          "originChainID": "Chain ID deposit originated from."
        },
        "returns": {
          "_0": "Proposal which consists of: - _dataHash Hash of data to be provided when deposit proposal is executed. - _yesVotes Number of votes in favor of proposal. - _noVotes Number of votes against proposal. - _status Current status of proposal."
        }
      },
      "getRoleAdmin(bytes32)": {
        "details": "Returns the admin role that controls `role`. See {grantRole} and {revokeRole}. To change a role's admin, use {_setRoleAdmin}."
      },
      "getRoleMember(bytes32,uint256)": {
        "details": "Returns one of the accounts that have `role`. `index` must be a value between 0 and {getRoleMemberCount}, non-inclusive. Role bearers are not sorted in any particular way, and their ordering may change at any point. WARNING: When using {getRoleMember} and {getRoleMemberCount}, make sure you perform all queries on the same block. See the following https://forum.openzeppelin.com/t/iterating-over-elements-on-enumerableset-in-openzeppelin-contracts/2296[forum post] for more information."
      },
      "getRoleMemberCount(bytes32)": {
        "details": "Returns the number of accounts that have `role`. Can be used together with {getRoleMember} to enumerate all bearers of a role."
      },
      "grantRole(bytes32,address)": {
        "details": "Grants `role` to `account`. If `account` had not been already granted `role`, emits a {RoleGranted} event. Requirements: - the caller must have ``role``'s admin role."
      },
      "hasRole(bytes32,address)": {
        "details": "Returns `true` if `account` has been granted `role`."
      },
      "isRelayer(address)": {
        "params": {
          "relayer": "Address to check."
        }
      },
      "paused()": {
        "details": "Returns true if the contract is paused, and false otherwise."
      },
      "renounceAdmin(address)": {
        "params": {
          "newAdmin": "Address that admin role will be granted to."
        }
      },
      "renounceRole(bytes32,address)": {
        "details": "Revokes `role` from the calling account. Roles are often managed via {grantRole} and {revokeRole}: this function's purpose is to provide a mechanism for accounts to lose their privileges if they are compromised (such as when a trusted device is misplaced). If the calling account had been granted `role`, emits a {RoleRevoked} event. Requirements: - the caller must be `account`."
      },
      "revokeRole(bytes32,address)": {
        "details": "Revokes `role` from `account`. If `account` had been granted `role`, emits a {RoleRevoked} event. Requirements: - the caller must have ``role``'s admin role."
      },
      "transferFunds(address[],uint256[])": {
        "params": {
          "addrs": "Array of addresses to transfer {amounts} to.",
          "amounts": "Array of amonuts to transfer to {addrs}."
        }
      },
      "voteProposal(uint8,uint64,bytes32,bytes32)": {
        "params": {
          "chainID": "ID of chain deposit originated from.",
          "dataHash": "Hash of data provided when deposit was made.",
          "depositNonce": "ID of deposited generated by origin Bridge contract."
        }
      }
    },
    "title": "Facilitates deposits, creation and votiing of deposit proposals, and deposit executions.",
    "version": 1
  },
  "userdoc": {
    "kind": "user",
    "methods": {
      "_totalRelayers()": {
        "notice": "Returns total relayers number.Added for backwards compatibility."
      },
      "adminAddRelayer(address)": {
        "notice": "Grants {relayerAddress} the relayer role.Only callable by an address that currently has the admin role, which is checked in grantRole().Emits {RelayerAdded} event."
      },
      "adminChangeFee(uint256)": {
        "notice": "Changes deposit fee.Only callable by admin."
      },
      "adminChangeRelayerThreshold(uint256)": {
        "notice": "Modifies the number of votes required for a proposal to be considered passed.Only callable by an address that currently has the admin role.Emits {RelayerThresholdChanged} event."
      },
      "adminPauseTransfers()": {
        "notice": "Pauses deposits, proposal creation and voting, and deposit executions.Only callable by an address that currently has the admin role."
      },
      "adminRemoveRelayer(address)": {
        "notice": "Removes relayer role for {relayerAddress}.Only callable by an address that currently has the admin role, which is checked in revokeRole().Emits {RelayerRemoved} event."
      },
      "adminSetBurnable(address,address)": {
        "notice": "Sets a resource as burnable for handler contracts that use the IERCHandler interface.Only callable by an address that currently has the admin role."
      },
      "adminSetGenericResource(address,bytes32,address,bytes4,bytes4)": {
        "notice": "Sets a new resource for handler contracts that use the IGenericHandler interface, and maps the {handlerAddress} to {resourceID} in {_resourceIDToHandlerAddress}.Only callable by an address that currently has the admin role."
      },
      "adminSetResource(address,bytes32,address)": {
        "notice": "Sets a new resource for handler contracts that use the IERCHandler interface, and maps the {handlerAddress} to {resourceID} in {_resourceIDToHandlerAddress}.Only callable by an address that currently has the admin role."
      },
      "adminUnpauseTransfers()": {
        "notice": "Unpauses deposits, proposal creation and voting, and deposit executions.Only callable by an address that currently has the admin role."
      },
      "adminWithdraw(address,address,address,uint256)": {
        "notice": "Used to manually withdraw funds from ERC safes."
      },
      "cancelProposal(uint8,uint64,bytes32)": {
        "notice": "Cancels a deposit proposal that has not been executed yet.Only callable by relayers when Bridge is not paused.Proposal must be past expiry threshold.Emits {ProposalEvent} event with status {Cancelled}."
      },
      "constructor": "Initializes Bridge, creates and grants {msg.sender} the admin role, creates and grants {initialRelayers} the relayer role.",
      "deposit(uint8,bytes32,bytes)": {
        "notice": "Initiates a transfer using a specified handler contract.Only callable when Bridge is not paused.Emits {Deposit} event."
      },
      "executeProposal(uint8,uint64,bytes,bytes32)": {
        "notice": "Executes a deposit proposal that is considered passed using a specified handler contract.Only callable by relayers when Bridge is not paused.Proposal must have Passed status.Hash of {data} must equal proposal's {dataHash}.Emits {ProposalEvent} event with status {Executed}."
      },
      "getProposal(uint8,uint64,bytes32)": {
        "notice": "Returns a proposal."
      },
      "isRelayer(address)": {
        "notice": "Returns true if {relayer} has the relayer role."
      },
      "renounceAdmin(address)": {
        "notice": "Removes admin role from {msg.sender} and grants it to {newAdmin}.Only callable by an address that currently has the admin role."
      },
      "transferFunds(address[],uint256[])": {
        "notice": "Transfers eth in the contract to the specified addresses. The parameters addrs and amounts are mapped 1-1. This means that the address at index 0 for addrs will receive the amount (in WEI) from amounts at index 0."
      },
      "voteProposal(uint8,uint64,bytes32,bytes32)": {
        "notice": "When called, {msg.sender} will be marked as voting in favor of proposal.Only callable by relayers when Bridge is not paused.Proposal must not have already been passed or executed.{msg.sender} must not have already voted on proposal.Emits {ProposalEvent} event with status indicating the proposal status.Emits {ProposalVote} event."
      }
    },
    "version": 1
  }
}